{
  "_format": "hh-sol-artifact-1",
  "contractName": "CrossChainPayAutomation",
  "sourceName": "contracts/BasePayAutomation.sol",
  "abi": [
    {
      "inputs": [],
      "stateMutability": "nonpayable",
      "type": "constructor"
    },
    {
      "inputs": [
        {
          "internalType": "address",
          "name": "owner",
          "type": "address"
        }
      ],
      "name": "OwnableInvalidOwner",
      "type": "error"
    },
    {
      "inputs": [
        {
          "internalType": "address",
          "name": "account",
          "type": "address"
        }
      ],
      "name": "OwnableUnauthorizedAccount",
      "type": "error"
    },
    {
      "anonymous": false,
      "inputs": [
        {
          "indexed": true,
          "internalType": "address",
          "name": "controller",
          "type": "address"
        }
      ],
      "name": "ControllerAdded",
      "type": "event"
    },
    {
      "anonymous": false,
      "inputs": [
        {
          "indexed": true,
          "internalType": "address",
          "name": "controller",
          "type": "address"
        }
      ],
      "name": "ControllerRemoved",
      "type": "event"
    },
    {
      "anonymous": false,
      "inputs": [
        {
          "indexed": true,
          "internalType": "address",
          "name": "previousOwner",
          "type": "address"
        },
        {
          "indexed": true,
          "internalType": "address",
          "name": "newOwner",
          "type": "address"
        }
      ],
      "name": "OwnershipTransferred",
      "type": "event"
    },
    {
      "anonymous": false,
      "inputs": [
        {
          "indexed": true,
          "internalType": "uint256",
          "name": "paymentId",
          "type": "uint256"
        },
        {
          "indexed": true,
          "internalType": "address",
          "name": "creator",
          "type": "address"
        },
        {
          "indexed": false,
          "internalType": "address",
          "name": "paymentToken",
          "type": "address"
        },
        {
          "indexed": false,
          "internalType": "uint256",
          "name": "totalAmount",
          "type": "uint256"
        },
        {
          "indexed": false,
          "internalType": "uint256",
          "name": "recipientCount",
          "type": "uint256"
        }
      ],
      "name": "PaymentExecuted",
      "type": "event"
    },
    {
      "anonymous": false,
      "inputs": [
        {
          "indexed": true,
          "internalType": "uint256",
          "name": "paymentId",
          "type": "uint256"
        },
        {
          "indexed": true,
          "internalType": "address",
          "name": "creator",
          "type": "address"
        },
        {
          "indexed": false,
          "internalType": "address",
          "name": "paymentToken",
          "type": "address"
        },
        {
          "indexed": false,
          "internalType": "uint256",
          "name": "totalAmount",
          "type": "uint256"
        },
        {
          "indexed": false,
          "internalType": "uint256",
          "name": "recipientCount",
          "type": "uint256"
        },
        {
          "indexed": false,
          "internalType": "uint256",
          "name": "amountPerRecipient",
          "type": "uint256"
        },
        {
          "indexed": false,
          "internalType": "uint256",
          "name": "scheduledTime",
          "type": "uint256"
        }
      ],
      "name": "PaymentScheduled",
      "type": "event"
    },
    {
      "anonymous": false,
      "inputs": [
        {
          "indexed": false,
          "internalType": "uint256",
          "name": "chainId",
          "type": "uint256"
        },
        {
          "indexed": false,
          "internalType": "address",
          "name": "tokenAddress",
          "type": "address"
        }
      ],
      "name": "PaymentTokenSet",
      "type": "event"
    },
    {
      "inputs": [
        {
          "internalType": "address",
          "name": "_controller",
          "type": "address"
        }
      ],
      "name": "addController",
      "outputs": [],
      "stateMutability": "nonpayable",
      "type": "function"
    },
    {
      "inputs": [
        {
          "internalType": "address",
          "name": "",
          "type": "address"
        }
      ],
      "name": "authorizedControllers",
      "outputs": [
        {
          "internalType": "bool",
          "name": "",
          "type": "bool"
        }
      ],
      "stateMutability": "view",
      "type": "function"
    },
    {
      "inputs": [
        {
          "internalType": "uint256",
          "name": "",
          "type": "uint256"
        }
      ],
      "name": "chainPaymentTokens",
      "outputs": [
        {
          "internalType": "address",
          "name": "",
          "type": "address"
        }
      ],
      "stateMutability": "view",
      "type": "function"
    },
    {
      "inputs": [
        {
          "internalType": "uint256",
          "name": "_totalAmount",
          "type": "uint256"
        },
        {
          "internalType": "address[]",
          "name": "_recipients",
          "type": "address[]"
        }
      ],
      "name": "executePaymentNow",
      "outputs": [
        {
          "internalType": "uint256",
          "name": "",
          "type": "uint256"
        }
      ],
      "stateMutability": "nonpayable",
      "type": "function"
    },
    {
      "inputs": [
        {
          "internalType": "address",
          "name": "_paymentToken",
          "type": "address"
        },
        {
          "internalType": "uint256",
          "name": "_totalAmount",
          "type": "uint256"
        },
        {
          "internalType": "address[]",
          "name": "_recipients",
          "type": "address[]"
        }
      ],
      "name": "executePaymentNowWithToken",
      "outputs": [
        {
          "internalType": "uint256",
          "name": "",
          "type": "uint256"
        }
      ],
      "stateMutability": "nonpayable",
      "type": "function"
    },
    {
      "inputs": [
        {
          "internalType": "uint256",
          "name": "_paymentId",
          "type": "uint256"
        }
      ],
      "name": "executeScheduledPayment",
      "outputs": [],
      "stateMutability": "nonpayable",
      "type": "function"
    },
    {
      "inputs": [
        {
          "internalType": "uint256",
          "name": "_paymentId",
          "type": "uint256"
        }
      ],
      "name": "getPaymentDetails",
      "outputs": [
        {
          "internalType": "address",
          "name": "creator",
          "type": "address"
        },
        {
          "internalType": "address",
          "name": "paymentToken",
          "type": "address"
        },
        {
          "internalType": "uint256",
          "name": "totalAmount",
          "type": "uint256"
        },
        {
          "internalType": "uint256",
          "name": "recipientCount",
          "type": "uint256"
        },
        {
          "internalType": "uint256",
          "name": "amountPerRecipient",
          "type": "uint256"
        },
        {
          "internalType": "uint256",
          "name": "scheduledTime",
          "type": "uint256"
        },
        {
          "internalType": "bool",
          "name": "executed",
          "type": "bool"
        }
      ],
      "stateMutability": "view",
      "type": "function"
    },
    {
      "inputs": [
        {
          "internalType": "uint256",
          "name": "_paymentId",
          "type": "uint256"
        }
      ],
      "name": "getPaymentRecipients",
      "outputs": [
        {
          "internalType": "address[]",
          "name": "",
          "type": "address[]"
        }
      ],
      "stateMutability": "view",
      "type": "function"
    },
    {
      "inputs": [],
      "name": "getPaymentToken",
      "outputs": [
        {
          "internalType": "address",
          "name": "",
          "type": "address"
        }
      ],
      "stateMutability": "view",
      "type": "function"
    },
    {
      "inputs": [],
      "name": "nextPaymentId",
      "outputs": [
        {
          "internalType": "uint256",
          "name": "",
          "type": "uint256"
        }
      ],
      "stateMutability": "view",
      "type": "function"
    },
    {
      "inputs": [],
      "name": "owner",
      "outputs": [
        {
          "internalType": "address",
          "name": "",
          "type": "address"
        }
      ],
      "stateMutability": "view",
      "type": "function"
    },
    {
      "inputs": [
        {
          "internalType": "uint256",
          "name": "",
          "type": "uint256"
        }
      ],
      "name": "payments",
      "outputs": [
        {
          "internalType": "address",
          "name": "creator",
          "type": "address"
        },
        {
          "internalType": "address",
          "name": "paymentToken",
          "type": "address"
        },
        {
          "internalType": "uint256",
          "name": "totalAmount",
          "type": "uint256"
        },
        {
          "internalType": "uint256",
          "name": "amountPerRecipient",
          "type": "uint256"
        },
        {
          "internalType": "uint256",
          "name": "scheduledTime",
          "type": "uint256"
        },
        {
          "internalType": "bool",
          "name": "executed",
          "type": "bool"
        }
      ],
      "stateMutability": "view",
      "type": "function"
    },
    {
      "inputs": [
        {
          "internalType": "address",
          "name": "_controller",
          "type": "address"
        }
      ],
      "name": "removeController",
      "outputs": [],
      "stateMutability": "nonpayable",
      "type": "function"
    },
    {
      "inputs": [],
      "name": "renounceOwnership",
      "outputs": [],
      "stateMutability": "nonpayable",
      "type": "function"
    },
    {
      "inputs": [
        {
          "internalType": "uint256",
          "name": "_totalAmount",
          "type": "uint256"
        },
        {
          "internalType": "address[]",
          "name": "_recipients",
          "type": "address[]"
        },
        {
          "internalType": "uint256",
          "name": "_scheduledTime",
          "type": "uint256"
        }
      ],
      "name": "schedulePayment",
      "outputs": [
        {
          "internalType": "uint256",
          "name": "",
          "type": "uint256"
        }
      ],
      "stateMutability": "nonpayable",
      "type": "function"
    },
    {
      "inputs": [
        {
          "internalType": "address",
          "name": "_paymentToken",
          "type": "address"
        },
        {
          "internalType": "uint256",
          "name": "_totalAmount",
          "type": "uint256"
        },
        {
          "internalType": "address[]",
          "name": "_recipients",
          "type": "address[]"
        },
        {
          "internalType": "uint256",
          "name": "_scheduledTime",
          "type": "uint256"
        }
      ],
      "name": "schedulePaymentWithToken",
      "outputs": [
        {
          "internalType": "uint256",
          "name": "",
          "type": "uint256"
        }
      ],
      "stateMutability": "nonpayable",
      "type": "function"
    },
    {
      "inputs": [
        {
          "internalType": "uint256",
          "name": "_chainId",
          "type": "uint256"
        },
        {
          "internalType": "address",
          "name": "_token",
          "type": "address"
        }
      ],
      "name": "setPaymentTokenForChain",
      "outputs": [],
      "stateMutability": "nonpayable",
      "type": "function"
    },
    {
      "inputs": [
        {
          "internalType": "address",
          "name": "newOwner",
          "type": "address"
        }
      ],
      "name": "transferOwnership",
      "outputs": [],
      "stateMutability": "nonpayable",
      "type": "function"
    },
    {
      "inputs": [
        {
          "internalType": "address",
          "name": "_token",
          "type": "address"
        },
        {
          "internalType": "uint256",
          "name": "_amount",
          "type": "uint256"
        }
      ],
      "name": "withdrawStuckTokens",
      "outputs": [],
      "stateMutability": "nonpayable",
      "type": "function"
    }
  ],
  "bytecode": "0x608060405234801561001057600080fd5b50338061003757604051631e4fbdf760e01b81526000600482015260240160405180910390fd5b610040816100d8565b5060016020527fb60096399359af1e390f4ccad595eafc702d6489db902b1fd8607f3867d438e180546001600160a01b031990811673036cbd53842c5426634e7929541ec2318f3dcf7e17909155629601aa6000527f2d945c78ad622b2c46e33c1e89ed0b22a35cf56b93497075c7679551a827c6a88054909116739e12ad42c4e4d2acfbade01a96446e48e6764b98179055610128565b600080546001600160a01b038381166001600160a01b0319831681178455604051919092169283917f8be0079c531659141344cd1fd0a4f28419497f9722a3daafe3b4186f6b6457e09190a35050565b61159b806101376000396000f3fe608060405234801561001057600080fd5b50600436106101215760003560e01c8063a8c1e20b116100ad578063ece2fdc211610071578063ece2fdc21461037e578063f2178d3514610391578063f2fde38b146103a4578063f6a74ed7146103b7578063fb8cf5d6146103ca57600080fd5b8063a8c1e20b146102f4578063b5dcdba51461031d578063bd61f0a614610330578063c281bcc814610343578063d41c3a651461037657600080fd5b806387d81789116100f457806387d81789146101895780638da5cb5b146102165780639b22b9201461023b5780639e70df2114610244578063a7fc7a07146102e157600080fd5b80634e7c5d2e14610126578063715018a61461013b578063806fcb8e1461014357806387273fdb14610169575b600080fd5b610139610134366004611231565b6103dd565b005b61013961044b565b6101566101513660046112a9565b61045f565b6040519081526020015b60405180910390f35b61017c61017736600461130b565b610478565b6040516101609190611324565b6101dc61019736600461130b565b6003602052600090815260409020805460018201546002830154600484015460058501546006909501546001600160a01b039485169593909416939192909160ff1686565b604080516001600160a01b0397881681529690951660208701529385019290925260608401526080830152151560a082015260c001610160565b6000546001600160a01b03165b6040516001600160a01b039091168152602001610160565b61015660025481565b61029f61025236600461130b565b600090815260036020819052604090912080546001820154600283015493830154600484015460058501546006909501546001600160a01b03948516979490931695949193909260ff1690565b604080516001600160a01b039889168152979096166020880152948601939093526060850191909152608084015260a0830152151560c082015260e001610160565b6101396102ef366004611370565b6104e7565b61022361030236600461130b565b6001602052600090815260409020546001600160a01b031681565b61015661032b366004611392565b61053b565b61013961033e3660046113e5565b610555565b610366610351366004611370565b60046020526000908152604090205460ff1681565b6040519015158152602001610160565b6102236105f4565b61015661038c36600461140f565b610674565b61015661039f366004611469565b61068b565b6101396103b2366004611370565b6106a4565b6101396103c5366004611370565b6106e2565b6101396103d836600461130b565b610733565b6103e56109bd565b60008281526001602090815260409182902080546001600160a01b0319166001600160a01b0385169081179091558251858152918201527f39db75df3ed66fe2043917ea45436f0ce2bb4ad1ebdf46101203e09b4e7550da910160405180910390a15050565b6104536109bd565b61045d60006109ea565b565b600061046e8686868686610a3a565b9695505050505050565b6000818152600360208181526040928390209091018054835181840281018401909452808452606093928301828280156104db57602002820191906000526020600020905b81546001600160a01b031681526001909101906020018083116104bd575b50505050509050919050565b6104ef6109bd565b6001600160a01b038116600081815260046020526040808220805460ff19166001179055517f0a8bb31534c0ed46f380cb867bd5c803a189ced9a764e30b3a4991a9901d74749190a250565b6000806105466105f4565b905061046e8187878787610a3a565b61055d6109bd565b816001600160a01b031663a9059cbb61057e6000546001600160a01b031690565b6040516001600160e01b031960e084901b1681526001600160a01b039091166004820152602481018490526044016020604051808303816000875af11580156105cb573d6000803e3d6000fd5b505050506040513d601f19601f820116820180604052508101906105ef91906114b5565b505050565b466000818152600160205260408120549091906001600160a01b03168061066e5760405162461bcd60e51b815260206004820152602360248201527f4e6f207061796d656e7420746f6b656e2073657420666f72207468697320636860448201526230b4b760e91b60648201526084015b60405180910390fd5b92915050565b600061068285858585610d35565b95945050505050565b6000806106966105f4565b905061068281868686610d35565b6106ac6109bd565b6001600160a01b0381166106d657604051631e4fbdf760e01b815260006004820152602401610665565b6106df816109ea565b50565b6106ea6109bd565b6001600160a01b038116600081815260046020526040808220805460ff19169055517f33d83959be2573f5453b12eb9d43b3499bc57d96bd2f067ba44803c859e811139190a250565b600081815260036020526040902080546001600160a01b03166107915760405162461bcd60e51b815260206004820152601660248201527514185e5b595b9d08191bd95cc81b9bdd08195e1a5cdd60521b6044820152606401610665565b600681015460ff16156107e65760405162461bcd60e51b815260206004820152601860248201527f5061796d656e7420616c726561647920657865637574656400000000000000006044820152606401610665565b806005015442101561083a5760405162461bcd60e51b815260206004820152601860248201527f5061796d656e742074696d65206e6f74207265616368656400000000000000006044820152606401610665565b80546001600160a01b031633148061086157503360009081526004602052604090205460ff165b8061087657506000546001600160a01b031633145b6108d15760405162461bcd60e51b815260206004820152602660248201527f4e6f7420617574686f72697a656420746f206578656375746520746869732070604482015265185e5b595b9d60d21b6064820152608401610665565b600181015460038201805460408051602080840282018101909252828152610949946001600160a01b0316939092909183018282801561093a57602002820191906000526020600020905b81546001600160a01b0316815260019091019060200180831161091c575b505050505083600401546110c5565b60068101805460ff1916600190811790915581549082015460028301546003840154604080516001600160a01b039485168152602081019390935282015291169083907f64dcc45c8bf26314103700cb3e251d47cdee628e30b916bbe4ad32ab67350bc69060600160405180910390a35050565b6000546001600160a01b0316331461045d5760405163118cdaa760e01b8152336004820152602401610665565b600080546001600160a01b038381166001600160a01b0319831681178455604051919092169283917f8be0079c531659141344cd1fd0a4f28419497f9722a3daafe3b4186f6b6457e09190a35050565b600082610a795760405162461bcd60e51b815260206004820152600d60248201526c4e6f20726563697069656e747360981b6044820152606401610665565b60008511610abe5760405162461bcd60e51b81526020600482015260126024820152710416d6f756e74206d757374206265203e20360741b6044820152606401610665565b6000610aca84876114d7565b905060008111610b1c5760405162461bcd60e51b815260206004820152601e60248201527f416d6f756e742070657220726563697069656e7420746f6f20736d616c6c00006044820152606401610665565b6040516323b872dd60e01b8152336004820152306024820152604481018790526001600160a01b038816906323b872dd906064016020604051808303816000875af1158015610b6f573d6000803e3d6000fd5b505050506040513d601f19601f82011682018060405250810190610b9391906114b5565b610baf5760405162461bcd60e51b8152600401610665906114f9565b6002805460009182610bc083611528565b9190505590506040518060e00160405280336001600160a01b03168152602001896001600160a01b031681526020018881526020018787808060200260200160405190810160405280939291908181526020018383602002808284376000920182905250938552505050602080830186905260408084018990526060938401839052858352600380835292819020855181546001600160a01b039182166001600160a01b031991821617835587850151600184018054919093169116179055908501516002820155928401518051610c9f93850192919091019061119b565b50608082810151600483015560a080840151600584015560c0909301516006909201805460ff191692151592909217909155604080516001600160a01b038c168152602081018b905290810188905260608101859052908101869052339183917f86f5972f6fc19693c934e237bab0a4e14e7c0fb800f7902de0e6ed98882bb67e910160405180910390a3979650505050505050565b600081610d745760405162461bcd60e51b815260206004820152600d60248201526c4e6f20726563697069656e747360981b6044820152606401610665565b60008411610db95760405162461bcd60e51b81526020600482015260126024820152710416d6f756e74206d757374206265203e20360741b6044820152606401610665565b6000610dc583866114d7565b905060008111610e175760405162461bcd60e51b815260206004820152601e60248201527f416d6f756e742070657220726563697069656e7420746f6f20736d616c6c00006044820152606401610665565b6040516323b872dd60e01b8152336004820152306024820152604481018690526001600160a01b038716906323b872dd906064016020604051808303816000875af1158015610e6a573d6000803e3d6000fd5b505050506040513d601f19601f82011682018060405250810190610e8e91906114b5565b610eaa5760405162461bcd60e51b8152600401610665906114f9565b610ee9868585808060200260200160405190810160405280939291908181526020018383602002808284376000920191909152508692506110c5915050565b6002805460009182610efa83611528565b9190505590506040518060e00160405280336001600160a01b03168152602001886001600160a01b03168152602001878152602001868680806020026020016040519081016040528093929190818152602001838360200280828437600092018290525093855250505060208083018690524260408085019190915260016060948501819052868452600380845293829020865181546001600160a01b039182166001600160a01b031991821617835588860151938301805494909216931692909217909155908501516002820155928401518051610fe093850192919091019061119b565b50608082810151600483015560a080840151600584015560c0909301516006909201805460ff191692151592909217909155604080516001600160a01b038b168152602081018a9052908101879052606081018590524291810191909152339183917f86f5972f6fc19693c934e237bab0a4e14e7c0fb800f7902de0e6ed98882bb67e910160405180910390a3604080516001600160a01b038916815260208101889052908101859052339082907f64dcc45c8bf26314103700cb3e251d47cdee628e30b916bbe4ad32ab67350bc69060600160405180910390a39695505050505050565b8260005b835181101561119457816001600160a01b031663a9059cbb8583815181106110f3576110f361154f565b6020026020010151856040518363ffffffff1660e01b815260040161112d9291906001600160a01b03929092168252602082015260400190565b6020604051808303816000875af115801561114c573d6000803e3d6000fd5b505050506040513d601f19601f8201168201806040525081019061117091906114b5565b61118c5760405162461bcd60e51b8152600401610665906114f9565b6001016110c9565b5050505050565b8280548282559060005260206000209081019282156111f0579160200282015b828111156111f057825182546001600160a01b0319166001600160a01b039091161782556020909201916001909101906111bb565b506111fc929150611200565b5090565b5b808211156111fc5760008155600101611201565b80356001600160a01b038116811461122c57600080fd5b919050565b6000806040838503121561124457600080fd5b8235915061125460208401611215565b90509250929050565b60008083601f84011261126f57600080fd5b50813567ffffffffffffffff81111561128757600080fd5b6020830191508360208260051b85010111156112a257600080fd5b9250929050565b6000806000806000608086880312156112c157600080fd5b6112ca86611215565b945060208601359350604086013567ffffffffffffffff8111156112ed57600080fd5b6112f98882890161125d565b96999598509660600135949350505050565b60006020828403121561131d57600080fd5b5035919050565b602080825282518282018190526000918401906040840190835b818110156113655783516001600160a01b031683526020938401939092019160010161133e565b509095945050505050565b60006020828403121561138257600080fd5b61138b82611215565b9392505050565b600080600080606085870312156113a857600080fd5b84359350602085013567ffffffffffffffff8111156113c657600080fd5b6113d28782880161125d565b9598909750949560400135949350505050565b600080604083850312156113f857600080fd5b61140183611215565b946020939093013593505050565b6000806000806060858703121561142557600080fd5b61142e85611215565b935060208501359250604085013567ffffffffffffffff81111561145157600080fd5b61145d8782880161125d565b95989497509550505050565b60008060006040848603121561147e57600080fd5b83359250602084013567ffffffffffffffff81111561149c57600080fd5b6114a88682870161125d565b9497909650939450505050565b6000602082840312156114c757600080fd5b8151801515811461138b57600080fd5b6000826114f457634e487b7160e01b600052601260045260246000fd5b500490565b602080825260159082015274151bdad95b881d1c985b9cd9995c8819985a5b1959605a1b604082015260600190565b60006001820161154857634e487b7160e01b600052601160045260246000fd5b5060010190565b634e487b7160e01b600052603260045260246000fdfea264697066735822122076418a502acd68be5f7cdaba162915acd28dda30e1a7a2a1b8f2a6b6e24f484b64736f6c634300081c0033",
  "linkReferences": {},
  "deployedLinkReferences": {}
}